{
  "address": "0xBb69A1fCb1b530c4f5e8E3598d309fb50fbeA3C8",
  "abi": [
    {
      "inputs": [
        {
          "internalType": "string",
          "name": "_name",
          "type": "string"
        }
      ],
      "stateMutability": "payable",
      "type": "constructor"
    },
    {
      "anonymous": false,
      "inputs": [
        {
          "indexed": false,
          "internalType": "string",
          "name": "message",
          "type": "string"
        }
      ],
      "name": "SayHello",
      "type": "event"
    },
    {
      "inputs": [],
      "name": "helloCount",
      "outputs": [
        {
          "internalType": "uint256",
          "name": "",
          "type": "uint256"
        }
      ],
      "stateMutability": "view",
      "type": "function"
    },
    {
      "inputs": [],
      "name": "name",
      "outputs": [
        {
          "internalType": "string",
          "name": "",
          "type": "string"
        }
      ],
      "stateMutability": "view",
      "type": "function"
    },
    {
      "inputs": [],
      "name": "owner",
      "outputs": [
        {
          "internalType": "address payable",
          "name": "",
          "type": "address"
        }
      ],
      "stateMutability": "view",
      "type": "function"
    },
    {
      "inputs": [
        {
          "internalType": "string",
          "name": "targetName",
          "type": "string"
        }
      ],
      "name": "sayHello",
      "outputs": [],
      "stateMutability": "nonpayable",
      "type": "function"
    }
  ],
  "transactionHash": "0xb737c716a36b1e5c31b33e62c973aa9bd9e31023790da0ae862c39f7b1d32236",
  "args": [
    "Pengtoshi Nakamoto"
  ],
  "numDeployments": 1,
  "solcInputHash": "35facf3815ad48686f0e1454258a7e70",
  "bytecode": "0x60806040526040516106903803806106908339810160408190526100229161005e565b5f80546001600160a01b03191633179055600161003f8282610192565b50505f60025561024c565b634e487b7160e01b5f52604160045260245ffd5b5f6020828403121561006e575f5ffd5b81516001600160401b03811115610083575f5ffd5b8201601f81018413610093575f5ffd5b80516001600160401b038111156100ac576100ac61004a565b604051601f8201601f19908116603f011681016001600160401b03811182821017156100da576100da61004a565b6040528181528282016020018610156100f1575f5ffd5b8160208401602083015e5f91810160200191909152949350505050565b600181811c9082168061012257607f821691505b60208210810361014057634e487b7160e01b5f52602260045260245ffd5b50919050565b601f82111561018d57805f5260205f20601f840160051c8101602085101561016b5750805b601f840160051c820191505b8181101561018a575f8155600101610177565b50505b505050565b81516001600160401b038111156101ab576101ab61004a565b6101bf816101b9845461010e565b84610146565b6020601f8211600181146101f1575f83156101da5750848201515b5f19600385901b1c1916600184901b17845561018a565b5f84815260208120601f198516915b828110156102205787850151825560209485019460019092019101610200565b508482101561023d57868401515f19600387901b60f8161c191681555b50505050600190811b01905550565b610437806102595f395ff3fe608060405234801561000f575f5ffd5b506004361061004a575f3560e01c806306fdde031461004e5780637ec5b6fe1461006c5780638da5cb5b14610083578063c3a9b1c5146100ad575b5f5ffd5b6100566100c2565b60405161006391906101bc565b60405180910390f35b61007560025481565b604051908152602001610063565b5f54610095906001600160a01b031681565b6040516001600160a01b039091168152602001610063565b6100c06100bb366004610205565b61014e565b005b600180546100cf906102b8565b80601f01602080910402602001604051908101604052809291908181526020018280546100fb906102b8565b80156101465780601f1061011d57610100808354040283529160200191610146565b820191905f5260205f20905b81548152906001019060200180831161012957829003601f168201915b505050505081565b60028054905f61015d836102f0565b91905055507f0739fb87028724ed02772f820b543201662e37d0701527efe0b952cba64926c2816001604051602001610197929190610314565b60408051601f19818403018152908290526101b1916101bc565b60405180910390a150565b602081525f82518060208401528060208501604085015e5f604082850101526040601f19601f83011684010191505092915050565b634e487b7160e01b5f52604160045260245ffd5b5f60208284031215610215575f5ffd5b813567ffffffffffffffff81111561022b575f5ffd5b8201601f8101841361023b575f5ffd5b803567ffffffffffffffff811115610255576102556101f1565b604051601f8201601f19908116603f0116810167ffffffffffffffff81118282101715610284576102846101f1565b60405281815282820160200186101561029b575f5ffd5b816020840160208301375f91810160200191909152949350505050565b600181811c908216806102cc57607f821691505b6020821081036102ea57634e487b7160e01b5f52602260045260245ffd5b50919050565b5f6001820161030d57634e487b7160e01b5f52601160045260245ffd5b5060010190565b6602432b6363796160cd1b81525f83518060208601600785015e6c0109026bc903730b6b29034b99609d1b60079184019182015283545f90600181811c9082168061036057607f821691505b60208210810361037e57634e487b7160e01b5f52602260045260245ffd5b80801561039257600181146103b0576103e4565b60ff1984166014870152600d600784151585028801010194506103e4565b5f898152602090205f5b848110156103d9578154601489830101526001909101906020016103ba565b505060148684010194505b505050506103f581601760f91b9052565b6001019594505050505056fea2646970667358221220d8e3d6718b4c388df47cae4d0a1714c4cf808e1e624132a2ebf5c0aab9fbf36764736f6c634300081b0033",
  "devdoc": {
    "kind": "dev",
    "methods": {},
    "version": 1
  },
  "userdoc": {
    "kind": "user",
    "methods": {},
    "version": 1
  },
  "storageLayout": {
    "storage": [
      {
        "astId": 1669,
        "contract": "contracts/Hello.sol:Hello",
        "label": "owner",
        "offset": 0,
        "slot": "0",
        "type": "t_address_payable"
      },
      {
        "astId": 1671,
        "contract": "contracts/Hello.sol:Hello",
        "label": "name",
        "offset": 0,
        "slot": "1",
        "type": "t_string_storage"
      },
      {
        "astId": 1673,
        "contract": "contracts/Hello.sol:Hello",
        "label": "helloCount",
        "offset": 0,
        "slot": "2",
        "type": "t_uint256"
      }
    ],
    "types": {
      "t_address_payable": {
        "encoding": "inplace",
        "label": "address payable",
        "numberOfBytes": "20"
      },
      "t_string_storage": {
        "encoding": "bytes",
        "label": "string",
        "numberOfBytes": "32"
      },
      "t_uint256": {
        "encoding": "inplace",
        "label": "uint256",
        "numberOfBytes": "32"
      }
    }
  }
}