{
  "address": "0xe26cf429FF7BA70cBb1c364Bc99F828c777d77a0",
  "abi": [
    {
      "inputs": [],
      "stateMutability": "nonpayable",
      "type": "constructor"
    },
    {
      "inputs": [],
      "name": "AccessControlBadConfirmation",
      "type": "error"
    },
    {
      "inputs": [
        {
          "internalType": "address",
          "name": "account",
          "type": "address"
        },
        {
          "internalType": "bytes32",
          "name": "neededRole",
          "type": "bytes32"
        }
      ],
      "name": "AccessControlUnauthorizedAccount",
      "type": "error"
    },
    {
      "inputs": [
        {
          "internalType": "address",
          "name": "target",
          "type": "address"
        }
      ],
      "name": "AddressEmptyCode",
      "type": "error"
    },
    {
      "inputs": [
        {
          "internalType": "address",
          "name": "implementation",
          "type": "address"
        }
      ],
      "name": "ERC1967InvalidImplementation",
      "type": "error"
    },
    {
      "inputs": [],
      "name": "ERC1967NonPayable",
      "type": "error"
    },
    {
      "inputs": [],
      "name": "FailedInnerCall",
      "type": "error"
    },
    {
      "inputs": [],
      "name": "InvalidInitialization",
      "type": "error"
    },
    {
      "inputs": [],
      "name": "NotInitializing",
      "type": "error"
    },
    {
      "inputs": [],
      "name": "UUPSUnauthorizedCallContext",
      "type": "error"
    },
    {
      "inputs": [
        {
          "internalType": "bytes32",
          "name": "slot",
          "type": "bytes32"
        }
      ],
      "name": "UUPSUnsupportedProxiableUUID",
      "type": "error"
    },
    {
      "anonymous": false,
      "inputs": [
        {
          "indexed": false,
          "internalType": "uint64",
          "name": "version",
          "type": "uint64"
        }
      ],
      "name": "Initialized",
      "type": "event"
    },
    {
      "anonymous": false,
      "inputs": [
        {
          "indexed": true,
          "internalType": "bytes32",
          "name": "role",
          "type": "bytes32"
        },
        {
          "indexed": true,
          "internalType": "bytes32",
          "name": "previousAdminRole",
          "type": "bytes32"
        },
        {
          "indexed": true,
          "internalType": "bytes32",
          "name": "newAdminRole",
          "type": "bytes32"
        }
      ],
      "name": "RoleAdminChanged",
      "type": "event"
    },
    {
      "anonymous": false,
      "inputs": [
        {
          "indexed": true,
          "internalType": "bytes32",
          "name": "role",
          "type": "bytes32"
        },
        {
          "indexed": true,
          "internalType": "address",
          "name": "account",
          "type": "address"
        },
        {
          "indexed": true,
          "internalType": "address",
          "name": "sender",
          "type": "address"
        }
      ],
      "name": "RoleGranted",
      "type": "event"
    },
    {
      "anonymous": false,
      "inputs": [
        {
          "indexed": true,
          "internalType": "bytes32",
          "name": "role",
          "type": "bytes32"
        },
        {
          "indexed": true,
          "internalType": "address",
          "name": "account",
          "type": "address"
        },
        {
          "indexed": true,
          "internalType": "address",
          "name": "sender",
          "type": "address"
        }
      ],
      "name": "RoleRevoked",
      "type": "event"
    },
    {
      "anonymous": false,
      "inputs": [
        {
          "indexed": false,
          "internalType": "string",
          "name": "message",
          "type": "string"
        }
      ],
      "name": "SayHello",
      "type": "event"
    },
    {
      "anonymous": false,
      "inputs": [
        {
          "indexed": true,
          "internalType": "address",
          "name": "implementation",
          "type": "address"
        }
      ],
      "name": "Upgraded",
      "type": "event"
    },
    {
      "inputs": [],
      "name": "DEFAULT_ADMIN_ROLE",
      "outputs": [
        {
          "internalType": "bytes32",
          "name": "",
          "type": "bytes32"
        }
      ],
      "stateMutability": "view",
      "type": "function"
    },
    {
      "inputs": [],
      "name": "UPGRADE_INTERFACE_VERSION",
      "outputs": [
        {
          "internalType": "string",
          "name": "",
          "type": "string"
        }
      ],
      "stateMutability": "view",
      "type": "function"
    },
    {
      "inputs": [
        {
          "internalType": "bytes32",
          "name": "role",
          "type": "bytes32"
        }
      ],
      "name": "getRoleAdmin",
      "outputs": [
        {
          "internalType": "bytes32",
          "name": "",
          "type": "bytes32"
        }
      ],
      "stateMutability": "view",
      "type": "function"
    },
    {
      "inputs": [
        {
          "internalType": "bytes32",
          "name": "role",
          "type": "bytes32"
        },
        {
          "internalType": "address",
          "name": "account",
          "type": "address"
        }
      ],
      "name": "grantRole",
      "outputs": [],
      "stateMutability": "nonpayable",
      "type": "function"
    },
    {
      "inputs": [
        {
          "internalType": "bytes32",
          "name": "role",
          "type": "bytes32"
        },
        {
          "internalType": "address",
          "name": "account",
          "type": "address"
        }
      ],
      "name": "hasRole",
      "outputs": [
        {
          "internalType": "bool",
          "name": "",
          "type": "bool"
        }
      ],
      "stateMutability": "view",
      "type": "function"
    },
    {
      "inputs": [],
      "name": "helloCount",
      "outputs": [
        {
          "internalType": "uint256",
          "name": "",
          "type": "uint256"
        }
      ],
      "stateMutability": "view",
      "type": "function"
    },
    {
      "inputs": [
        {
          "internalType": "string",
          "name": "_name",
          "type": "string"
        }
      ],
      "name": "initialize",
      "outputs": [],
      "stateMutability": "nonpayable",
      "type": "function"
    },
    {
      "inputs": [],
      "name": "name",
      "outputs": [
        {
          "internalType": "string",
          "name": "",
          "type": "string"
        }
      ],
      "stateMutability": "view",
      "type": "function"
    },
    {
      "inputs": [],
      "name": "owner",
      "outputs": [
        {
          "internalType": "address payable",
          "name": "",
          "type": "address"
        }
      ],
      "stateMutability": "view",
      "type": "function"
    },
    {
      "inputs": [],
      "name": "proxiableUUID",
      "outputs": [
        {
          "internalType": "bytes32",
          "name": "",
          "type": "bytes32"
        }
      ],
      "stateMutability": "view",
      "type": "function"
    },
    {
      "inputs": [
        {
          "internalType": "bytes32",
          "name": "role",
          "type": "bytes32"
        },
        {
          "internalType": "address",
          "name": "callerConfirmation",
          "type": "address"
        }
      ],
      "name": "renounceRole",
      "outputs": [],
      "stateMutability": "nonpayable",
      "type": "function"
    },
    {
      "inputs": [
        {
          "internalType": "bytes32",
          "name": "role",
          "type": "bytes32"
        },
        {
          "internalType": "address",
          "name": "account",
          "type": "address"
        }
      ],
      "name": "revokeRole",
      "outputs": [],
      "stateMutability": "nonpayable",
      "type": "function"
    },
    {
      "inputs": [
        {
          "internalType": "string",
          "name": "targetName",
          "type": "string"
        }
      ],
      "name": "sayHello",
      "outputs": [],
      "stateMutability": "nonpayable",
      "type": "function"
    },
    {
      "inputs": [
        {
          "internalType": "bytes4",
          "name": "interfaceId",
          "type": "bytes4"
        }
      ],
      "name": "supportsInterface",
      "outputs": [
        {
          "internalType": "bool",
          "name": "",
          "type": "bool"
        }
      ],
      "stateMutability": "view",
      "type": "function"
    },
    {
      "inputs": [
        {
          "internalType": "address",
          "name": "newImplementation",
          "type": "address"
        },
        {
          "internalType": "bytes",
          "name": "data",
          "type": "bytes"
        }
      ],
      "name": "upgradeToAndCall",
      "outputs": [],
      "stateMutability": "payable",
      "type": "function"
    }
  ],
  "numDeployments": 1,
  "solcInputHash": "35facf3815ad48686f0e1454258a7e70",
  "bytecode": "0x60a060405230608052348015610013575f5ffd5b5061001c610021565b6100d3565b7ff0c57e16840df040f15088dc2f81fe391c3923bec73e23a9662efc9c229c6a00805468010000000000000000900460ff16156100715760405163f92ee8a960e01b815260040160405180910390fd5b80546001600160401b03908116146100d05780546001600160401b0319166001600160401b0390811782556040519081527fc7f505b2f371ae2175ee4913f4499e1f2633a7b5936321eed1cdaeb6115181d29060200160405180910390a15b50565b6080516110386100f95f395f818161077a015281816107a301526108eb01526110385ff3fe6080604052600436106100e4575f3560e01c80637ec5b6fe11610087578063ad3cb1cc11610057578063ad3cb1cc1461024e578063c3a9b1c51461027e578063d547741f1461029d578063f62d1888146102bc575f5ffd5b80637ec5b6fe146101d15780638da5cb5b146101e657806391d148541461021c578063a217fddf1461023b575f5ffd5b80632f2ff15d116100c25780632f2ff15d1461016a57806336568abe1461018b5780634f1ef286146101aa57806352d1902d146101bd575f5ffd5b806301ffc9a7146100e857806306fdde031461011c578063248a9ca31461013d575b5f5ffd5b3480156100f3575f5ffd5b50610107610102366004610b84565b6102db565b60405190151581526020015b60405180910390f35b348015610127575f5ffd5b50610130610311565b6040516101139190610bab565b348015610148575f5ffd5b5061015c610157366004610be0565b61039d565b604051908152602001610113565b348015610175575f5ffd5b50610189610184366004610c12565b6103bd565b005b348015610196575f5ffd5b506101896101a5366004610c12565b6103df565b6101896101b8366004610cc7565b610417565b3480156101c8575f5ffd5b5061015c610436565b3480156101dc575f5ffd5b5061015c60025481565b3480156101f1575f5ffd5b505f54610204906001600160a01b031681565b6040516001600160a01b039091168152602001610113565b348015610227575f5ffd5b50610107610236366004610c12565b610451565b348015610246575f5ffd5b5061015c5f81565b348015610259575f5ffd5b50610130604051806040016040528060058152602001640352e302e360dc1b81525081565b348015610289575f5ffd5b50610189610298366004610d25565b610487565b3480156102a8575f5ffd5b506101896102b7366004610c12565b6104f5565b3480156102c7575f5ffd5b506101896102d6366004610d25565b610511565b5f6001600160e01b03198216637965db0b60e01b148061030b57506301ffc9a760e01b6001600160e01b03198316145b92915050565b6001805461031e90610d72565b80601f016020809104026020016040519081016040528092919081815260200182805461034a90610d72565b80156103955780601f1061036c57610100808354040283529160200191610395565b820191905f5260205f20905b81548152906001019060200180831161037857829003601f168201915b505050505081565b5f9081525f516020610fe35f395f51905f52602052604090206001015490565b6103c68261039d565b6103cf81610648565b6103d98383610655565b50505050565b6001600160a01b03811633146104085760405163334bd91960e11b815260040160405180910390fd5b61041282826106f6565b505050565b61041f61076f565b61042882610815565b610432828261081f565b5050565b5f61043f6108e0565b505f516020610fc35f395f51905f5290565b5f9182525f516020610fe35f395f51905f52602090815260408084206001600160a01b0393909316845291905290205460ff1690565b60028054905f61049683610daa565b91905055507f0739fb87028724ed02772f820b543201662e37d0701527efe0b952cba64926c28160016040516020016104d0929190610de5565b60408051601f19818403018152908290526104ea91610bab565b60405180910390a150565b6104fe8261039d565b61050781610648565b6103d983836106f6565b7ff0c57e16840df040f15088dc2f81fe391c3923bec73e23a9662efc9c229c6a008054600160401b810460ff16159067ffffffffffffffff165f811580156105565750825b90505f8267ffffffffffffffff1660011480156105725750303b155b905081158015610580575080155b1561059e5760405163f92ee8a960e01b815260040160405180910390fd5b845467ffffffffffffffff1916600117855583156105c857845460ff60401b1916600160401b1785555b6105d0610929565b6105d8610929565b5f80546001600160a01b0319163317905560016105f58782610ee5565b505f600255831561064057845460ff60401b19168555604051600181527fc7f505b2f371ae2175ee4913f4499e1f2633a7b5936321eed1cdaeb6115181d29060200160405180910390a15b505050505050565b6106528133610931565b50565b5f5f516020610fe35f395f51905f5261066e8484610451565b6106ed575f848152602082815260408083206001600160a01b03871684529091529020805460ff191660011790556106a33390565b6001600160a01b0316836001600160a01b0316857f2f8788117e7eff1d82e926ec794901d17c78024a50270940304540a733656f0d60405160405180910390a4600191505061030b565b5f91505061030b565b5f5f516020610fe35f395f51905f5261070f8484610451565b156106ed575f848152602082815260408083206001600160a01b0387168085529252808320805460ff1916905551339287917ff6391f5c32d9c69d2a47ea670b442974b53935d1edc7fd64eb21e047a839171b9190a4600191505061030b565b306001600160a01b037f00000000000000000000000000000000000000000000000000000000000000001614806107f557507f00000000000000000000000000000000000000000000000000000000000000006001600160a01b03166107e95f516020610fc35f395f51905f52546001600160a01b031690565b6001600160a01b031614155b156108135760405163703e46dd60e11b815260040160405180910390fd5b565b5f61043281610648565b816001600160a01b03166352d1902d6040518163ffffffff1660e01b8152600401602060405180830381865afa925050508015610879575060408051601f3d908101601f1916820190925261087691810190610fa0565b60015b6108a657604051634c9c8ce360e01b81526001600160a01b03831660048201526024015b60405180910390fd5b5f516020610fc35f395f51905f5281146108d657604051632a87526960e21b81526004810182905260240161089d565b610412838361096a565b306001600160a01b037f000000000000000000000000000000000000000000000000000000000000000016146108135760405163703e46dd60e11b815260040160405180910390fd5b6108136109bf565b61093b8282610451565b6104325760405163e2517d3f60e01b81526001600160a01b03821660048201526024810183905260440161089d565b61097382610a08565b6040516001600160a01b038316907fbc7cd75a20ee27fd9adebab32041f755214dbc6bffa90cc0225b39da2e5c2d3b905f90a28051156109b7576104128282610a6b565b610432610add565b7ff0c57e16840df040f15088dc2f81fe391c3923bec73e23a9662efc9c229c6a0054600160401b900460ff1661081357604051631afcd79f60e31b815260040160405180910390fd5b806001600160a01b03163b5f03610a3d57604051634c9c8ce360e01b81526001600160a01b038216600482015260240161089d565b5f516020610fc35f395f51905f5280546001600160a01b0319166001600160a01b0392909216919091179055565b60605f5f846001600160a01b031684604051610a879190610fb7565b5f60405180830381855af49150503d805f8114610abf576040519150601f19603f3d011682016040523d82523d5f602084013e610ac4565b606091505b5091509150610ad4858383610afc565b95945050505050565b34156108135760405163b398979f60e01b815260040160405180910390fd5b606082610b1157610b0c82610b5b565b610b54565b8151158015610b2857506001600160a01b0384163b155b15610b5157604051639996b31560e01b81526001600160a01b038516600482015260240161089d565b50805b9392505050565b805115610b6b5780518082602001fd5b604051630a12f52160e11b815260040160405180910390fd5b5f60208284031215610b94575f5ffd5b81356001600160e01b031981168114610b54575f5ffd5b602081525f82518060208401528060208501604085015e5f604082850101526040601f19601f83011684010191505092915050565b5f60208284031215610bf0575f5ffd5b5035919050565b80356001600160a01b0381168114610c0d575f5ffd5b919050565b5f5f60408385031215610c23575f5ffd5b82359150610c3360208401610bf7565b90509250929050565b634e487b7160e01b5f52604160045260245ffd5b5f5f67ffffffffffffffff841115610c6a57610c6a610c3c565b50604051601f19601f85018116603f0116810181811067ffffffffffffffff82111715610c9957610c99610c3c565b604052838152905080828401851015610cb0575f5ffd5b838360208301375f60208583010152509392505050565b5f5f60408385031215610cd8575f5ffd5b610ce183610bf7565b9150602083013567ffffffffffffffff811115610cfc575f5ffd5b8301601f81018513610d0c575f5ffd5b610d1b85823560208401610c50565b9150509250929050565b5f60208284031215610d35575f5ffd5b813567ffffffffffffffff811115610d4b575f5ffd5b8201601f81018413610d5b575f5ffd5b610d6a84823560208401610c50565b949350505050565b600181811c90821680610d8657607f821691505b602082108103610da457634e487b7160e01b5f52602260045260245ffd5b50919050565b5f60018201610dc757634e487b7160e01b5f52601160045260245ffd5b5060010190565b5f81518060208401855e5f93019283525090919050565b6602432b6363796160cd1b81525f610e006007830185610dce565b6c0109026bc903730b6b29034b99609d1b81525f8454610e1f81610d72565b600182168015610e365760018114610e5157610e84565b60ff198316600d860152600d82151583028601019350610e84565b875f5260205f205f5b83811015610e79578154878201600d0152600190910190602001610e5a565b5050600d8286010193505b5050601760f91b82525060010195945050505050565b601f82111561041257805f5260205f20601f840160051c81016020851015610ebf5750805b601f840160051c820191505b81811015610ede575f8155600101610ecb565b5050505050565b815167ffffffffffffffff811115610eff57610eff610c3c565b610f1381610f0d8454610d72565b84610e9a565b6020601f821160018114610f45575f8315610f2e5750848201515b5f19600385901b1c1916600184901b178455610ede565b5f84815260208120601f198516915b82811015610f745787850151825560209485019460019092019101610f54565b5084821015610f9157868401515f19600387901b60f8161c191681555b50505050600190811b01905550565b5f60208284031215610fb0575f5ffd5b5051919050565b5f610b548284610dce56fe360894a13ba1a3210667c828492db98dca3e2076cc3735a920a3ca505d382bbc02dd7bc7dec4dceedda775e58dd541e08a116c6c53815c0bd028192f7b626800a2646970667358221220e424400397b900b53cda3c36ad4f5035d1df513a3dd39ffb4e51d24ffbc4eb7264736f6c634300081b0033",
  "devdoc": {
    "errors": {
      "AccessControlBadConfirmation()": [
        {
          "details": "The caller of a function is not the expected one. NOTE: Don't confuse with {AccessControlUnauthorizedAccount}."
        }
      ],
      "AccessControlUnauthorizedAccount(address,bytes32)": [
        {
          "details": "The `account` is missing a role."
        }
      ],
      "AddressEmptyCode(address)": [
        {
          "details": "There's no code at `target` (it is not a contract)."
        }
      ],
      "ERC1967InvalidImplementation(address)": [
        {
          "details": "The `implementation` of the proxy is invalid."
        }
      ],
      "ERC1967NonPayable()": [
        {
          "details": "An upgrade function sees `msg.value > 0` that may be lost."
        }
      ],
      "FailedInnerCall()": [
        {
          "details": "A call to an address target failed. The target may have reverted."
        }
      ],
      "InvalidInitialization()": [
        {
          "details": "The contract is already initialized."
        }
      ],
      "NotInitializing()": [
        {
          "details": "The contract is not initializing."
        }
      ],
      "UUPSUnauthorizedCallContext()": [
        {
          "details": "The call is from an unauthorized context."
        }
      ],
      "UUPSUnsupportedProxiableUUID(bytes32)": [
        {
          "details": "The storage `slot` is unsupported as a UUID."
        }
      ]
    },
    "events": {
      "Initialized(uint64)": {
        "details": "Triggered when the contract has been initialized or reinitialized."
      },
      "RoleAdminChanged(bytes32,bytes32,bytes32)": {
        "details": "Emitted when `newAdminRole` is set as ``role``'s admin role, replacing `previousAdminRole` `DEFAULT_ADMIN_ROLE` is the starting admin for all roles, despite {RoleAdminChanged} not being emitted signaling this."
      },
      "RoleGranted(bytes32,address,address)": {
        "details": "Emitted when `account` is granted `role`. `sender` is the account that originated the contract call, an admin role bearer except when using {AccessControl-_setupRole}."
      },
      "RoleRevoked(bytes32,address,address)": {
        "details": "Emitted when `account` is revoked `role`. `sender` is the account that originated the contract call:   - if using `revokeRole`, it is the admin role bearer   - if using `renounceRole`, it is the role bearer (i.e. `account`)"
      },
      "Upgraded(address)": {
        "details": "Emitted when the implementation is upgraded."
      }
    },
    "kind": "dev",
    "methods": {
      "constructor": {
        "custom:oz-upgrades-unsafe-allow": "constructor"
      },
      "getRoleAdmin(bytes32)": {
        "details": "Returns the admin role that controls `role`. See {grantRole} and {revokeRole}. To change a role's admin, use {_setRoleAdmin}."
      },
      "grantRole(bytes32,address)": {
        "details": "Grants `role` to `account`. If `account` had not been already granted `role`, emits a {RoleGranted} event. Requirements: - the caller must have ``role``'s admin role. May emit a {RoleGranted} event."
      },
      "hasRole(bytes32,address)": {
        "details": "Returns `true` if `account` has been granted `role`."
      },
      "proxiableUUID()": {
        "details": "Implementation of the ERC1822 {proxiableUUID} function. This returns the storage slot used by the implementation. It is used to validate the implementation's compatibility when performing an upgrade. IMPORTANT: A proxy pointing at a proxiable contract should not be considered proxiable itself, because this risks bricking a proxy that upgrades to it, by delegating to itself until out of gas. Thus it is critical that this function revert if invoked through a proxy. This is guaranteed by the `notDelegated` modifier."
      },
      "renounceRole(bytes32,address)": {
        "details": "Revokes `role` from the calling account. Roles are often managed via {grantRole} and {revokeRole}: this function's purpose is to provide a mechanism for accounts to lose their privileges if they are compromised (such as when a trusted device is misplaced). If the calling account had been revoked `role`, emits a {RoleRevoked} event. Requirements: - the caller must be `callerConfirmation`. May emit a {RoleRevoked} event."
      },
      "revokeRole(bytes32,address)": {
        "details": "Revokes `role` from `account`. If `account` had been granted `role`, emits a {RoleRevoked} event. Requirements: - the caller must have ``role``'s admin role. May emit a {RoleRevoked} event."
      },
      "supportsInterface(bytes4)": {
        "details": "See {IERC165-supportsInterface}."
      },
      "upgradeToAndCall(address,bytes)": {
        "custom:oz-upgrades-unsafe-allow-reachable": "delegatecall",
        "details": "Upgrade the implementation of the proxy to `newImplementation`, and subsequently execute the function call encoded in `data`. Calls {_authorizeUpgrade}. Emits an {Upgraded} event."
      }
    },
    "version": 1
  },
  "userdoc": {
    "kind": "user",
    "methods": {},
    "version": 1
  },
  "storageLayout": {
    "storage": [
      {
        "astId": 1737,
        "contract": "contracts/HelloUpgradeable.sol:HelloUpgradeable",
        "label": "owner",
        "offset": 0,
        "slot": "0",
        "type": "t_address_payable"
      },
      {
        "astId": 1739,
        "contract": "contracts/HelloUpgradeable.sol:HelloUpgradeable",
        "label": "name",
        "offset": 0,
        "slot": "1",
        "type": "t_string_storage"
      },
      {
        "astId": 1741,
        "contract": "contracts/HelloUpgradeable.sol:HelloUpgradeable",
        "label": "helloCount",
        "offset": 0,
        "slot": "2",
        "type": "t_uint256"
      }
    ],
    "types": {
      "t_address_payable": {
        "encoding": "inplace",
        "label": "address payable",
        "numberOfBytes": "20"
      },
      "t_string_storage": {
        "encoding": "bytes",
        "label": "string",
        "numberOfBytes": "32"
      },
      "t_uint256": {
        "encoding": "inplace",
        "label": "uint256",
        "numberOfBytes": "32"
      }
    }
  }
}